{
  "_format": "hh-sol-artifact-1",
  "contractName": "MedicineContract",
  "sourceName": "contracts/medicineContract.sol",
  "abi": [
    {
      "inputs": [
        {
          "internalType": "string",
          "name": "_name",
          "type": "string"
        },
        {
          "internalType": "string",
          "name": "info",
          "type": "string"
        },
        {
          "internalType": "string",
          "name": "made",
          "type": "string"
        },
        {
          "internalType": "string",
          "name": "batchNo",
          "type": "string"
        }
      ],
      "name": "add",
      "outputs": [],
      "stateMutability": "nonpayable",
      "type": "function"
    },
    {
      "inputs": [],
      "name": "getAll",
      "outputs": [
        {
          "internalType": "string",
          "name": "",
          "type": "string"
        },
        {
          "internalType": "string",
          "name": "",
          "type": "string"
        },
        {
          "internalType": "string",
          "name": "",
          "type": "string"
        },
        {
          "internalType": "string",
          "name": "",
          "type": "string"
        }
      ],
      "stateMutability": "view",
      "type": "function"
    }
  ],
  "bytecode": "0x608060405234801561001057600080fd5b5061077a806100206000396000f3fe608060405234801561001057600080fd5b50600436106100365760003560e01c806353ed51431461003b578063878fc1081461005c575b600080fd5b610043610078565b6040516100539493929190610462565b60405180910390f35b6100766004803603810190610071919061060c565b6102c4565b005b606080606080600060016002600383805461009290610712565b80601f01602080910402602001604051908101604052809291908181526020018280546100be90610712565b801561010b5780601f106100e05761010080835404028352916020019161010b565b820191906000526020600020905b8154815290600101906020018083116100ee57829003601f168201915b5050505050935082805461011e90610712565b80601f016020809104026020016040519081016040528092919081815260200182805461014a90610712565b80156101975780601f1061016c57610100808354040283529160200191610197565b820191906000526020600020905b81548152906001019060200180831161017a57829003601f168201915b505050505092508180546101aa90610712565b80601f01602080910402602001604051908101604052809291908181526020018280546101d690610712565b80156102235780601f106101f857610100808354040283529160200191610223565b820191906000526020600020905b81548152906001019060200180831161020657829003601f168201915b5050505050915080805461023690610712565b80601f016020809104026020016040519081016040528092919081815260200182805461026290610712565b80156102af5780601f10610284576101008083540402835291602001916102af565b820191906000526020600020905b81548152906001019060200180831161029257829003601f168201915b50505050509050935093509350935090919293565b83600090805190602001906102da929190610326565b5082600190805190602001906102f1929190610326565b508160029080519060200190610308929190610326565b50806003908051906020019061031f929190610326565b5050505050565b82805461033290610712565b90600052602060002090601f016020900481019282610354576000855561039b565b82601f1061036d57805160ff191683800117855561039b565b8280016001018555821561039b579182015b8281111561039a57825182559160200191906001019061037f565b5b5090506103a891906103ac565b5090565b5b808211156103c55760008160009055506001016103ad565b5090565b600081519050919050565b600082825260208201905092915050565b60005b838110156104035780820151818401526020810190506103e8565b83811115610412576000848401525b50505050565b6000601f19601f8301169050919050565b6000610434826103c9565b61043e81856103d4565b935061044e8185602086016103e5565b61045781610418565b840191505092915050565b6000608082019050818103600083015261047c8187610429565b905081810360208301526104908186610429565b905081810360408301526104a48185610429565b905081810360608301526104b88184610429565b905095945050505050565b6000604051905090565b600080fd5b600080fd5b600080fd5b600080fd5b7f4e487b7100000000000000000000000000000000000000000000000000000000600052604160045260246000fd5b61051982610418565b810181811067ffffffffffffffff82111715610538576105376104e1565b5b80604052505050565b600061054b6104c3565b90506105578282610510565b919050565b600067ffffffffffffffff821115610577576105766104e1565b5b61058082610418565b9050602081019050919050565b82818337600083830152505050565b60006105af6105aa8461055c565b610541565b9050828152602081018484840111156105cb576105ca6104dc565b5b6105d684828561058d565b509392505050565b600082601f8301126105f3576105f26104d7565b5b813561060384826020860161059c565b91505092915050565b60008060008060808587031215610626576106256104cd565b5b600085013567ffffffffffffffff811115610644576106436104d2565b5b610650878288016105de565b945050602085013567ffffffffffffffff811115610671576106706104d2565b5b61067d878288016105de565b935050604085013567ffffffffffffffff81111561069e5761069d6104d2565b5b6106aa878288016105de565b925050606085013567ffffffffffffffff8111156106cb576106ca6104d2565b5b6106d7878288016105de565b91505092959194509250565b7f4e487b7100000000000000000000000000000000000000000000000000000000600052602260045260246000fd5b6000600282049050600182168061072a57607f821691505b6020821081141561073e5761073d6106e3565b5b5091905056fea264697066735822122038cfa42c982944590f80254ceb19076a2b555f6a1310afa55599d9fb813e69dd64736f6c63430008090033",
  "linkReferences": {},
  "deployedLinkReferences": {}
}