{
  "_format": "hh-sol-artifact-1",
  "contractName": "MedicineContract",
  "sourceName": "contracts/medicineContract.sol",
  "abi": [
    {
      "anonymous": false,
      "inputs": [
        {
          "indexed": false,
          "internalType": "string",
          "name": "name",
          "type": "string"
        },
        {
          "indexed": false,
          "internalType": "string",
          "name": "description",
          "type": "string"
        },
        {
          "indexed": false,
          "internalType": "string",
          "name": "madeBy",
          "type": "string"
        },
        {
          "indexed": false,
          "internalType": "string",
          "name": "batchNumber",
          "type": "string"
        }
      ],
      "name": "getmedicine",
      "type": "event"
    },
    {
      "inputs": [],
      "name": "batchNumber",
      "outputs": [
        {
          "internalType": "string",
          "name": "",
          "type": "string"
        }
      ],
      "stateMutability": "view",
      "type": "function"
    },
    {
      "inputs": [],
      "name": "description",
      "outputs": [
        {
          "internalType": "string",
          "name": "",
          "type": "string"
        }
      ],
      "stateMutability": "view",
      "type": "function"
    },
    {
      "inputs": [],
      "name": "getMedicine",
      "outputs": [],
      "stateMutability": "nonpayable",
      "type": "function"
    },
    {
      "inputs": [],
      "name": "getName",
      "outputs": [
        {
          "internalType": "string",
          "name": "",
          "type": "string"
        }
      ],
      "stateMutability": "view",
      "type": "function"
    },
    {
      "inputs": [],
      "name": "madeBy",
      "outputs": [
        {
          "internalType": "string",
          "name": "",
          "type": "string"
        }
      ],
      "stateMutability": "view",
      "type": "function"
    },
    {
      "inputs": [],
      "name": "name",
      "outputs": [
        {
          "internalType": "string",
          "name": "",
          "type": "string"
        }
      ],
      "stateMutability": "view",
      "type": "function"
    },
    {
      "inputs": [
        {
          "internalType": "string",
          "name": "newName",
          "type": "string"
        },
        {
          "internalType": "string",
          "name": "newDescription",
          "type": "string"
        },
        {
          "internalType": "string",
          "name": "newMadeBy",
          "type": "string"
        },
        {
          "internalType": "string",
          "name": "newBatchNumber",
          "type": "string"
        }
      ],
      "name": "setMedicine",
      "outputs": [],
      "stateMutability": "nonpayable",
      "type": "function"
    },
    {
      "inputs": [
        {
          "internalType": "string",
          "name": "newName",
          "type": "string"
        }
      ],
      "name": "setName",
      "outputs": [],
      "stateMutability": "nonpayable",
      "type": "function"
    }
  ],
  "bytecode": "0x608060405234801561001057600080fd5b50610cbf806100206000396000f3fe608060405234801561001057600080fd5b50600436106100885760003560e01c8063ba8730651161005b578063ba87306514610105578063c47f002714610123578063f0119e3a1461013f578063f595c4851461015b57610088565b806306fdde031461008d57806317d7de7c146100ab5780632563dbec146100c95780637284e416146100e7575b600080fd5b610095610165565b6040516100a291906108a7565b60405180910390f35b6100b36101f3565b6040516100c091906108a7565b60405180910390f35b6100d1610285565b6040516100de91906108a7565b60405180910390f35b6100ef610313565b6040516100fc91906108a7565b60405180910390f35b61010d6103a1565b60405161011a91906108a7565b60405180910390f35b61013d60048036038101906101389190610a12565b61042f565b005b61015960048036038101906101549190610a5b565b610449565b005b6101636104ab565b005b6000805461017290610b61565b80601f016020809104026020016040519081016040528092919081815260200182805461019e90610b61565b80156101eb5780601f106101c0576101008083540402835291602001916101eb565b820191906000526020600020905b8154815290600101906020018083116101ce57829003601f168201915b505050505081565b60606000805461020290610b61565b80601f016020809104026020016040519081016040528092919081815260200182805461022e90610b61565b801561027b5780601f106102505761010080835404028352916020019161027b565b820191906000526020600020905b81548152906001019060200180831161025e57829003601f168201915b5050505050905090565b6002805461029290610b61565b80601f01602080910402602001604051908101604052809291908181526020018280546102be90610b61565b801561030b5780601f106102e05761010080835404028352916020019161030b565b820191906000526020600020905b8154815290600101906020018083116102ee57829003601f168201915b505050505081565b6001805461032090610b61565b80601f016020809104026020016040519081016040528092919081815260200182805461034c90610b61565b80156103995780601f1061036e57610100808354040283529160200191610399565b820191906000526020600020905b81548152906001019060200180831161037c57829003601f168201915b505050505081565b600380546103ae90610b61565b80601f01602080910402602001604051908101604052809291908181526020018280546103da90610b61565b80156104275780601f106103fc57610100808354040283529160200191610427565b820191906000526020600020905b81548152906001019060200180831161040a57829003601f168201915b505050505081565b8060009080519060200190610445929190610743565b5050565b836000908051906020019061045f929190610743565b508260019080519060200190610476929190610743565b50816002908051906020019061048d929190610743565b5080600390805190602001906104a4929190610743565b5050505050565b6104b36107c9565b600080546104c090610b61565b80601f01602080910402602001604051908101604052809291908181526020018280546104ec90610b61565b80156105395780601f1061050e57610100808354040283529160200191610539565b820191906000526020600020905b81548152906001019060200180831161051c57829003601f168201915b505050505081600001819052506001805461055390610b61565b80601f016020809104026020016040519081016040528092919081815260200182805461057f90610b61565b80156105cc5780601f106105a1576101008083540402835291602001916105cc565b820191906000526020600020905b8154815290600101906020018083116105af57829003601f168201915b50505050508160200181905250600280546105e690610b61565b80601f016020809104026020016040519081016040528092919081815260200182805461061290610b61565b801561065f5780601f106106345761010080835404028352916020019161065f565b820191906000526020600020905b81548152906001019060200180831161064257829003601f168201915b505050505081604001819052506003805461067990610b61565b80601f01602080910402602001604051908101604052809291908181526020018280546106a590610b61565b80156106f25780601f106106c7576101008083540402835291602001916106f2565b820191906000526020600020905b8154815290600101906020018083116106d557829003601f168201915b505050505081606001819052507f948285752dd3e9ad685f93191d13a801062184a5e57293a6fe488deac9f2d57760006001600260036040516107389493929190610c28565b60405180910390a150565b82805461074f90610b61565b90600052602060002090601f01602090048101928261077157600085556107b8565b82601f1061078a57805160ff19168380011785556107b8565b828001600101855582156107b8579182015b828111156107b757825182559160200191906001019061079c565b5b5090506107c591906107f1565b5090565b6040518060800160405280606081526020016060815260200160608152602001606081525090565b5b8082111561080a5760008160009055506001016107f2565b5090565b600081519050919050565b600082825260208201905092915050565b60005b8381101561084857808201518184015260208101905061082d565b83811115610857576000848401525b50505050565b6000601f19601f8301169050919050565b60006108798261080e565b6108838185610819565b935061089381856020860161082a565b61089c8161085d565b840191505092915050565b600060208201905081810360008301526108c1818461086e565b905092915050565b6000604051905090565b600080fd5b600080fd5b600080fd5b600080fd5b7f4e487b7100000000000000000000000000000000000000000000000000000000600052604160045260246000fd5b61091f8261085d565b810181811067ffffffffffffffff8211171561093e5761093d6108e7565b5b80604052505050565b60006109516108c9565b905061095d8282610916565b919050565b600067ffffffffffffffff82111561097d5761097c6108e7565b5b6109868261085d565b9050602081019050919050565b82818337600083830152505050565b60006109b56109b084610962565b610947565b9050828152602081018484840111156109d1576109d06108e2565b5b6109dc848285610993565b509392505050565b600082601f8301126109f9576109f86108dd565b5b8135610a098482602086016109a2565b91505092915050565b600060208284031215610a2857610a276108d3565b5b600082013567ffffffffffffffff811115610a4657610a456108d8565b5b610a52848285016109e4565b91505092915050565b60008060008060808587031215610a7557610a746108d3565b5b600085013567ffffffffffffffff811115610a9357610a926108d8565b5b610a9f878288016109e4565b945050602085013567ffffffffffffffff811115610ac057610abf6108d8565b5b610acc878288016109e4565b935050604085013567ffffffffffffffff811115610aed57610aec6108d8565b5b610af9878288016109e4565b925050606085013567ffffffffffffffff811115610b1a57610b196108d8565b5b610b26878288016109e4565b91505092959194509250565b7f4e487b7100000000000000000000000000000000000000000000000000000000600052602260045260246000fd5b60006002820490506001821680610b7957607f821691505b60208210811415610b8d57610b8c610b32565b5b50919050565b60008190508160005260206000209050919050565b60008154610bb581610b61565b610bbf8186610819565b94506001821660008114610bda5760018114610bec57610c1f565b60ff1983168652602086019350610c1f565b610bf585610b93565b60005b83811015610c1757815481890152600182019150602081019050610bf8565b808801955050505b50505092915050565b60006080820190508181036000830152610c428187610ba8565b90508181036020830152610c568186610ba8565b90508181036040830152610c6a8185610ba8565b90508181036060830152610c7e8184610ba8565b90509594505050505056fea2646970667358221220769e66ad4630d3d2c4931a67f9d0886a4bcf8eeca5a592ecdb7ea61a2ffbb85464736f6c63430008090033",
  "linkReferences": {},
  "deployedLinkReferences": {}
}